:020000040800F2
:100000008807002029020008151600080D160008B0
:100010001116000821040008D9170008000000008C
:100020000000000000000000000000001D16000895
:100030002504000800000000191600082116000819
:10004000430200084302000843020008430200087C
:10005000430200084302000843020008430200086C
:10006000430200084302000843020008430200085C
:10007000430200084302000843020008430200084C
:10008000430200084302000843020008430200083C
:10009000430200084302000843020008430200082C
:1000A000430200084302000843020008430200081C
:1000B000430200084302000843020008430200080C
:1000C00043020008430200084302000843020008FC
:1000D00043020008430200084302000843020008EC
:1000E00043020008430200084302000843020008DC
:1000F00043020008430200084302000843020008CC
:1001000043020008430200084302000843020008BB
:1001100043020008430200084302000843020008AB
:10012000430200084302000843020008430200089B
:10013000430200084302000843020008430200088B
:10014000430200084302000843020008430200087B
:10015000430200084302000843020008430200086B
:10016000430200084302000843020008430200085B
:100170004302000843020008430200080000000098
:10018000430200084302000800F002F800F03CF8C7
:100190000AA090E8000C82448344AAF10107DA45E2
:1001A00001D100F031F8AFF2090EBAE80F0013F0F8
:1001B000010F18BFFB1A43F001031847741C00001D
:1001C000941C0000103A24BF78C878C1FAD85207AE
:1001D00024BF30C830C144BF04680C6070470000C1
:1001E0000023002400250026103A28BF78C1FBD840
:1001F000520728BF30C148BF0B6070471FB501F0E0
:10020000FEFD1FBD10B510BD00F0D0F81146FFF780
:10021000F5FF01F099FC00F0EEF803B4FFF7F2FFF0
:1002200003BC00F0F5F80000094880470948004782
:10023000FEE7FEE7FEE7FEE7FEE7FEE7FEE7FEE796
:10024000FEE7FEE704480549054A064B70470000F3
:10025000D5160008890100088801002088070020C1
:10026000880300208803002053EA020C00F0698014
:100270002DE9F04B4FF00006002B1FBFB3FA83F5BA
:1002800003FA05F424FA05F65E4012BF1643B2FAEB
:1002900082F502FA05F4C5F120051EBF22FA05FC1D
:1002A00044EA0C04203556EA044C4FEA144418BFC3
:1002B000641C4FF000084FF00009904271EB030CF2
:1002C00039D3002919BFB1FA81F701FA07F6B0FA5C
:1002D00080F700FA07F6C7F120071EBF20FA07FCD7
:1002E00046EA0C062037B6FBF4FCA7EB0507103FE7
:1002F00007F01F0BCBF120062CFA06F60CFA0BFBCD
:1003000044BFB3460026202FA4BF5E464FF0000B2B
:100310005BEA060C08BF4FF0010B19EB0B0948EB29
:100320000608ABFB027C06FB02CC0BFB03CCC01B1C
:1003300071EB0C01C1E70B46024641464846BDE859
:10034000F08B13B5084318BF4FF0FF300146AFF3F1
:100350000080BDE81C4070474FF0000200B5134616
:1003600094469646203922BFA0E80C50A0E80C50D5
:10037000B1F12001BFF4F7AF090728BFA0E80C5086
:1003800048BF0CC05DF804EB890028BF40F8042B7F
:1003900008BF704748BF20F8022B11F0804F18BFEC
:1003A00000F8012B7047704770477047754600F0A2
:1003B0002BF8AE4605006946534620F007008546F7
:1003C00018B020B5FFF73EFFBDE820404FF0000613
:1003D0004FF000074FF000084FF0000BAC46ACE8C0
:1003E000C009ACE8C009ACE8C009ACE8C00921F01C
:1003F00007018D46704710B50446AFF300802046D4
:10040000BDE81040FFF709BF00487047100000200A
:1004100001491820ABBEFEE726000200704700002D
:10042000FEE7000070470000F0B581B040F26417AD
:10043000044643F60C46C2F200070020C4F202064E
:10044000F86100F087FA3168C9031BD43068C0072F
:100450001CBF01203060306810F0F20F2ED03068E1
:10046000C00633D43068800639D4306840063FD4A3
:100470003068000645D4306880074BD4012001B0B5
:10048000F0BD00BFF4B10546601C0DD13068C0035B
:10049000DCD53068C00344BF30685FEAC030D5D5D2
:1004A0003068C003F2D4D1E700F054FA401BA042F8
:1004B00008D83068C003F7D4C8E700BF002001B0F7
:1004C000F0BD00BF032001B0F0BD00BFF86940F0EF
:1004D0001000F8611020306030688006C5D5F869DA
:1004E00040F00800F8612020306030684006BFD539
:1004F000F86940F00400F861402030603068000680
:10050000B9D5F86940F00200F861802030603068A9
:100510008007B3D5F86940F02000F8610220306010
:10052000012001B0F0BD0000B0B5864602208EF873
:100530000500DEF8000042B1531E032B02F0030C4D
:1005400008D20022BCF1000F1AD1006801218EF8F8
:100550000510B0BD22F00302A1F1100354420022A5
:1005600053F8105F043A05605D68944205609D6829
:100570000560DD680560F3D15242BCF1000FE4D0A4
:1005800051F82230BCF1010F0360DED001EB820193
:100590004A68BCF1020F02601CBF896801600068F4
:1005A00001218EF80510B0BD002804BF012070475E
:1005B00010B50446407918B101206071002010BDCB
:1005C00000202071204600F005F801206071002015
:1005D00010BD000081B043F63001C4F20201006892
:1005E000A1F50362904201D001B070470020009055
:1005F000086840F480500860086800F4805000905B
:10060000009801B0704700002DE9F04381B040F23E
:100610006418C2F2000898F81820012A04D10220B8
:1006200001B0BDE8F08300BF0546012088F818003E
:100630004CF250308946FFF7F7FE28B1002188F8C8
:10064000181001B0BDE8F0834FF0FF30C9F800008A
:10065000286843F610470128C4F202071CD1286914
:100660003968000221F440713960396880B241F084
:10067000040139603968084340F4803038604CF236
:100680005030FFF7D1FE396821F00401396057F886
:10069000101C89053BD452E0D5E902603044864203
:1006A00030D2F000841C00BF28694FF44072C1B200
:1006B000032939684FEA002021F440713960396814
:1006C00038BF82B241EA02003860386820F0F80092
:1006D0003860386820433860386840F480303860CB
:1006E0004CF25030FFF7A0FE3968002821F0FA01E3
:1006F000396047D1D5E9020101360844864204F148
:100700000804D1D3002057F8101C890517D557F8D5
:10071000101C21F4007147F8101C57F8101C41F40C
:10072000006147F8101C57F8101C21F4006147F8CD
:10073000101C57F8101C41F4007147F8101C57F8B2
:10074000101C49057FF57AAF57F8101C21F4806121
:1007500047F8101C57F8101C41F4805147F8101C42
:1007600057F8101C21F4805147F8101C57F8101C42
:1007700041F4806147F8101C002188F8181001B07E
:10078000BDE8F083C9F8006057F8101C8905BED495
:10079000D5E700002DE9F04F82B000F13E4241F66E
:1007A000004502F1FF77C4F20205082243F6004E2D
:1007B0004FEAB726A84208BF0722C4F2010E072E4F
:1007C00038BF4FEAB7220125002600274FF0000866
:1007D000009208E008F101080437B8F1100F06F1A3
:1007E000020600F0A7800C6805FA08F914EA090F60
:1007F000F0D0D1F804B003220BF0030CACF10104EB
:10080000B240012C6FEA020A10D88268CC6802EA72
:100810000A02B440224382604268CBF3001422EA09
:10082000090204FA08F42243426005E0BCF1030F18
:1008300002D14FF0030C20E0C2688C6802EA0A0281
:10084000B4402243BCF1020FC26016D16FF0030224
:1008500002EA58020244D2F820C007F01C050F2318
:100860000C69AB402CEA030304FA05F52B43136231
:10087000D1F804B001250BF0030C02680CFA06F362
:1008800002EA0A021A431BF4403F0260A2D000228F
:1008900043F644030192C4F202031A684FF6084C6F
:1008A00042F480421A601A68CFF6FF7C02F480425C
:1008B0000192019A28F00302724452F80C3007F0BA
:1008C0000C050F24AC40A343009C04FA05F52B4310
:1008D00042F80C30DEF808204B6842EA090543F67E
:1008E0000C4CDC0258BF22EA0905CEF80850C4F2CD
:1008F000010CDCF800209C0242EA090558BF22EAFC
:100900000905CCF80050DEF804209C0342EA0905F2
:1009100058BF22EA0905CEF80450DEF80020DB03B8
:1009200042EA090558BF22EA0905CEF80050012520
:1009300050E700BF02B0BDE8F08F0000006908403A
:1009400018BF012070470000002A08BF0904816118
:100950007047000040F28410C2F200000068704747
:1009600040F2000040F28411C2F20000C2F2000125
:1009700000780A68104408607047000080B543F6AC
:100980000040C4F20200016841F400710160016896
:1009900041F480610160016841F4807101600320CD
:1009A00000F076F8002000F005F800F027F80020AD
:1009B00080BD000070B540F20006C2F2000640F2B1
:1009C00008013278C2F200014FF47A730968B3FB70
:1009D000F2F20446B1FBF2F1084600F031FB0F2CB5
:1009E0004FF0010508D838B94FF0FF3021460022FA
:1009F000002500F021F87460284670BD82B0002008
:100A000043F640010190C4F202014A6842F4804278
:100A10004A604A6802F480420192019A0090086894
:100A200040F080500860086800F080500090009806
:100A3000072002B000F02CB810B54EF60C5CCEF2D8
:100A4000000CDCF80030C3F3022E8EF00704042CF7
:100A500028BF0424BEF103034FF0FF3E0EFA04F456
:100A600038BF0023A14399400EFA03F39A43114380
:100A700000F00F0200F160430901043A03F56443FA
:100A80006244002848BF02F10C03197010BD000039
:100A90004EF60C51CEF200010A684FF6FF031A40E1
:100AA00060F30A2242F0806040F0FD7008607047F9
:100AB0002DE9F041002800F08B8043F60808C4F2CD
:100AC00002080446D8F8F8030D4600F007008842F3
:100AD00007D288F8F853D8F8F80300F00700A842C6
:100AE00076D12068810717D5410705D5D8F80010C1
:100AF00041F4E051C8F80010010705D5D8F80010FE
:100B000041F46041C8F80010D8F80010A26821F044
:100B1000F0011143C8F80010C0073FD1D8F8F8031E
:100B200000F00700A84207D988F8F853D8F8F8036E
:100B300000F00700A8424BD12068410707D5D8F83C
:100B40000010E26821F4E0511143C8F800100007DA
:100B500008D5D8F80000216920F4604040EAC100BF
:100B6000C8F8000000F07CF8D8F8001041F61862D0
:100B7000C1F30311C0F60002515C40F2080220FAF2
:100B800001F140F20400C2F200000068C2F200026B
:100B90001160FFF70FFF0020BDE8F0816068811E43
:100BA000022907D258F8081C89015CBF0120BDE862
:100BB000F08111E0012807D158F8081C89035CBFB7
:100BC0000120BDE8F08107E058F8081C890703D42C
:100BD0000120BDE8F08100BFD8F8001021F003012A
:100BE0000843C8F80000FFF7B5FE064641F2883713
:100BF000D8F80000616800F00C00B0EB810F8DD0D8
:100C0000FFF7A8FE801BB842F2D90320BDE8F081AF
:100C100040F2080043F60801C2F20000C4F20201EB
:100C20000068096841F62862C1F38221C0F600021B
:100C3000515CC8407047000040F2080043F60801CC
:100C4000C2F20000C4F202010068096841F628629D
:100C5000C1F34231C0F60002515CC8407047000049
:100C600010B543F60404C4F20204606800F00C01FD
:100C700042F200400829C0F2F40007D0042918BF4E
:100C800010BD41F20020C0F27A0010BD216801F0D1
:100C90003F02216823684902C3F3881106D4A1FBEF
:100CA00000010023FFF7E0FA07E000BF41F2002057
:100CB000C0F27A004843B0FBF2F021680222C1F38F
:100CC000014102EB4101B0FBF1F010BD2DE9F04113
:100CD00082B0002868D00446007843F60006C007BA
:100CE000C4F202060BD0B06800F00C00042840F0FB
:100CF0009F803068800302D56068002854D0207837
:100D000080071AD5B06810F00C0F09D0B06800F059
:100D10000C00082840F0A6807068400200F1A28014
:100D20003068800702D5E06801283DD1306821692C
:100D300020F0F80040EAC10030602078000737D486
:100D4000207840074CD4A56955B3B06800F00C007A
:100D5000082840F0BB80012D26D07068E16900F4BE
:100D600080028A4220D1216A00F03F028A421BD1D0
:100D700047F6C071626A0140B1EB821F14D1A16ACB
:100D80004FF6FF73C903994300F44032A1F5803157
:100D90008A4209D1E16A00F07060B0EB016F03D1C3
:100DA000002002B0BDE8F081012002B0BDE8F08172
:100DB0006069002840F20000C4F2472076D001218B
:100DC000C0F8801EFFF7C6FD054600BF706F8007A4
:100DD000B6D4FFF7BFFD401B0228F7D9DDE000BF06
:100DE000306C10F080580AD100200190306C40F037
:100DF00080503064306C00F080500190019847F2D0
:100E00000007C4F200073868C00541D4386840F4D0
:100E100080703860FFF79EFD054600BF3868C0054A
:100E200036D4FFF797FD401B0228F7D9B5E000BF85
:100E3000B06800F00C00082803D1706840023FF54C
:100E400058AF6068B0F5803F07D0B0F5A02F40F0F4
:100E50008D80306840F480203060306840F480300D
:100E600030608DE0E068002852D00020C4F24720B6
:100E700001210160FFF76EFD054600BF3068800765
:100E80003FF554AFFFF766FD401B0228F6D984E01A
:100E9000A068012805D005284ED1306F40F004002D
:100EA0003067306F40F0010030674FE00021C0F83C
:100EB000801EFFF74FFD0546706F80077FF540AF3E
:100EC000FFF748FD401B0228F6D966E00027C4F270
:100ED000472700203866FFF73DFD022D05460BD160
:100EE000306880015ED5FFF735FD401B02284FF0CA
:100EF0000300F5D955E700BF306880017FF550AF9A
:100F0000FFF728FD401B02284FF00300F4D948E703
:100F10000020C4F2472000210160FFF71BFD0546B9
:100F2000306880077FF509AFFFF714FD401B0228EA
:100F30004FF00300F4D934E7316F002821F00101AC
:100F40003167316F21F0040131674DD0FFF702FDA9
:100F5000054641F2883700BF306F800756D4FFF74F
:100F6000F9FC401BB842F7D917E000BF31680028F0
:100F700021F480313160316821F4802131604FD01B
:100F8000FFF7E8FC054600BF306880033FF5B7AEC9
:100F9000FFF7E0FC401B6428F6D9032002B0BDE84F
:100FA000F08100BF04F11C052FCD084340EA8210F8
:100FB000D9034FF6FF729143A1F5803140EA0560F5
:100FC0000843706001203866FFF7C4FC044600BF88
:100FD000306880013FF5E4AEFFF7BCFC001B02283F
:100FE0004FF00300F4D9DCE6FFF7B4FC054641F20C
:100FF000883700BF306F800708D5FFF7ABFC401B78
:10100000B8424FF00300F5D9CBE600BFB8F1000FAE
:101010007FF499AE306C20F08050306493E600BFCE
:10102000FFF798FC054600BF306880037FF567AE88
:10103000FFF790FC401B64284FF00300F4D9B0E6A2
:10104000411E0020B0EB116F1CBF012070474EF213
:101050001002CEF2000251604EF62351CEF2000192
:10106000F0230B700721906011607047002804BFC7
:101070000120704710B5044690F83D0028B90020C3
:1010800084F83C00204600F021F8242084F83D003C
:101090002068C16821F40051C160204600F024FBA3
:1010A0002068016921F490410161416921F02A0120
:1010B0004161C16841F40051C160002020212064D9
:1010C00084F83D1084F83E1010BD0000F0B587B0E4
:1010D000006844F60001C4F2000100248842CDE912
:1010E0000544CDE9034402942AD044F20041C4F2FD
:1010F0000001884265D1002043F630010190C4F21E
:1011000002010A6942F400320A610A6902F40032FB
:101110000192019A01900A6842F001020A6009688E
:1011200001F00101019101990C2102910221CDE907
:101130000310032005900020C4F202003CE000BF31
:1011400043F630000194C4F202000169002741F423
:10115000802101610169C4F2020701F4802101913B
:10116000019901940168022541F0020101600168C2
:10117000032601F00201019101990194016841F0F7
:1011800008010160006802A900F0080001900198C0
:101190004FF4006002900720069007F58060CDE9CB
:1011A00003540596FFF7F6FA4FF48070CDE9020577
:1011B00007F54060CDE904460721069102A9FFF733
:1011C000E9FA07B0F0BD00002DE9F04381B0044614
:1011D00090F83E0020280DD10E4600294FF0010066
:1011E00000F0CC801746002A00F0C88094F83C003C
:1011F000012803D1022001B0BDE8F083012084F86A
:101200003C00002022211D46206484F83E1020630B
:10121000FFF7A0FBA785E785A1680746B1F5805FCA
:1012200001D1206910B1B046002601E04FF000085E
:10123000002084F83C00E08D002800F09B8005F140
:1012400001090DE040684FF000086FF35F2026F8B9
:10125000020BE08D0138E085E08D002800F08A80E7
:101260002068016889060DD4B9F1000F18D04DB37C
:10127000FFF770FBC01BA84224D8206801688906CC
:10128000F6D500BFB8F1000FDCD0A168B1F5805FE2
:1012900014D009B9216989B1406800F07F000EE0DF
:1012A00001688906EED4016889065CBF01685FEABF
:1012B0008161E7D401688906F2D5E3E7406808F860
:1012C000010BC6E7206850E8030F216820F4D070B6
:1012D00041E80302E2B1206850E8030F216820F4DE
:1012E000D07041E803029AB1206850E8030F2168EA
:1012F00020F4D07041E8030252B1206850E8030F97
:10130000216820F4D07041E80302002ADAD100BF3E
:10131000206850E8050F216820F0010041E805022F
:10132000DAB1206850E8050F216820F0010041E89B
:10133000050292B1206850E8050F216820F00100F5
:1013400041E805024AB1206850E8050F216820F005
:10135000010041E80502002ADAD1202084F83D008E
:1013600084F83E00002084F83C00032001B0BDE872
:10137000F08300BF202084F83E00002001B0BDE8CB
:10138000F08300002DE9F04381B0044690F83D0061
:1013900020280DD10F4600294FF0010000F0DD801C
:1013A0001646002A00F0D98094F83C00012803D1A9
:1013B000022001B0BDE8F083012084F83C00002049
:1013C000206421201D4684F83D00FFF7C3FAA6845F
:1013D000E684A1680646B1F5805F03D12069002844
:1013E00000F01081B8460027002084F83C00E18C12
:1013F0002068002900F0908005F101090DE000BF90
:10140000B8F1000F28D018F8011B4160E18C0139B8
:10141000E184E18C002900F07F8001680906EFD4A7
:10142000B9F1000F0AD0FDB1FFF794FA801BA84272
:101430001AD8206801680906F6D5E1E701680906AF
:10144000DED4016809065CBF01685FEA0161D7D498
:1014500001680906F2D5D3E737F8021B4FF0000800
:101460006FF35F21D1E700BF206850E8030F2168C8
:1014700020F4D07041E80302BAB3206850E8030FAB
:10148000216820F4D07041E8030272B3206850E86C
:10149000030F216820F4D07041E803022AB32068CA
:1014A00050E8030F216820F4D07041E80302002ABD
:1014B000DAD11AE0206850E8050F216820F0010019
:1014C00041E80502DAB1206850E8050F216820F0F4
:1014D000010041E8050292B1206850E8050F21683B
:1014E00020F0010041E805024AB1206850E8050FEC
:1014F000216820F0010041E80502002ADAD120200D
:1015000084F83D0084F83E00002084F83C0003206D
:1015100001B0BDE8F08300BF0168490619D4FDB1F0
:10152000691C0DD10168490613D4016849065CBFE6
:1015300001685FEA41610CD401684906F2D508E010
:10154000FFF708FA801BA8420AD820680068400606
:10155000F6D5202084F83D00002001B0BDE8F083DE
:10156000206850E8030F216820F4D07041E803029E
:10157000E2B3206850E8030F216820F4D07041E8FE
:1015800003029AB3206850E8030F216820F4D0705A
:1015900041E8030252B3206850E8030F216820F4A9
:1015A000D07041E80302002ADAD11FE0206850E839
:1015B000050F216820F0010041E80502002A9ED0B5
:1015C000206850E8050F216820F0010041E805027D
:1015D000002A3FF494AF206850E8050F216820F0FE
:1015E000010041E80502002A3FF489AF206850E875
:1015F000050F216820F0010041E80502002AD5D13D
:101600007DE700BF4FF00008EEE60000FEE70000B7
:10161000FEE70000FEE70000704700007047000092
:10162000FFF79EB9B0B592B0002443F640000B948A
:10163000CDE90944CDE907440594CDE90344CDE95A
:1016400001440094C4F202000168022541F0805177
:101650000160006800F080500090009847F20000A0
:101660000094C4F20000016841F480410160006808
:1016700000F48040009000980120099010200A900A
:1016800008200E9032200F90042010900720119017
:1016900006A80695CDE90C54FFF718FB20B1EFF32F
:1016A000108072B6FEE700BF0F20CDE901054FF4B0
:1016B000A05004904FF48050059001A8002103949D
:1016C000FFF7F6F920B1EFF3108072B6FEE700BF26
:1016D00012B0B0BD4EF68850CEF20000016841F461
:1016E000700101607047000010B504460068D4E93D
:1016F00002C22369016921F4405111430161626909
:1017000043EA0C01E3691143C268194349F20C63CF
:101710009A431143C1604169A26921F4407141F2C9
:101720000043114340F48062C4F201039A424161D4
:1017300002D1FFF781FA01E0FFF76AFAE169636815
:101740001922B1F5004FA0FB020123D15A00DB0F93
:10175000FEF78AFD48F21F51C5F2EB11A0FB0123F1
:101760005A094FF69C73C0F6FF7303F1805302FBD6
:101770000300322303EBC000A0FB01014FF4F8701B
:1017800000EA111000EB0210C1F342110844216875
:10179000886010BD9A009B0FFEF766FD48F21F514E
:1017A000C5F2EB11A0FB01235A094FF69C73C0F65A
:1017B000FF7302FB0300322303EB0010A0FB0101C7
:1017C000F02000EA511000EB0210C1F3431108446D
:1017D0002168886010BD0000FEE700008AB040F27A
:1017E000BC08C2F2000840F27005C2F2000508F120
:1017F000010005F1080B019002AF0DF12409A8F1D9
:10180000010000900AE000BF7F208DF808005846D4
:10181000394601224FF0FF33FFF7B4FD4046642103
:10182000FEF79AFD5846414601224FF0FF33FFF77D
:10183000CBFC98F80020019958464FF0FF33FFF792
:10184000C3FC98F8010051380628E7D8DFE800F01B
:101850000484224668AED20098F80000411C58FA71
:1018600081F1033851F8046C5FFA80FABAF1000F85
:1018700000F02281009C00BF14F8010F394602904D
:1018800028460122FEF750FEBAF1010AF4D1B04217
:10189000BAD115E198F80000411C58FA81F151F8CD
:1018A00004AC42F20001CEF2040109680338C4B26C
:1018B0006FF31F31002CADF8241000F0B580009EAE
:1018C00016F8010F3946029028460122FEF72CFE39
:1018D000013CF5D1504597D1AAE000BF98F800002F
:1018E000411C58FA81F151F804AC43F61441033815
:1018F000C4F20201C4B20968002C4FF000008DF858
:10190000240000F0A580009E16F8010F39460290D1
:1019100028460122FEF708FE013CF5D19AE000BFFF
:1019200098F80000411C58FA81F1033851F804ACD2
:10193000C4B2002C00F09E80009E00BF16F8010F7C
:101940003946029028460122FEF7EEFD013CF5D112
:1019500050457FF459AF91E045F65920C5F65B40FC
:10196000049098F8000045F25561C5F657010391BF
:10197000411C58FA81F1033851F804ACC4B245F265
:101980005130002CC5F25240029000F0A780009E1A
:1019900016F8010F4946099028460122FEF7C4FDBA
:1019A000013CF5D1504500F09C80C1E098F8000062
:1019B0000022411C58FA81F1033851F804ACC4B23A
:1019C000002C4FF00200CDE90422CDE9022206905E
:1019D00000F09680009E00BF16F8010F494609905E
:1019E00028460122FEF7A0FD013CF5D1504500F04C
:1019F0008A809DE098F80000411C58FA81F1033874
:101A000051F804ACC4B2002C00F09880009E00BFD6
:101A100016F8010F3946029028460122FEF784FD90
:101A2000013CF5D116E000BFFF2050457FF4ECAE3D
:101A300040F2A520ADF808005846394602224FF082
:101A4000FF33FFF79FFC584649460222E2E600BFFB
:101A5000FF2000BF50457FF4D7AE40F2A510ADF88F
:101A600008005846394602224FF0FF33FFF78AFC40
:101A700061E000BFFF2050457FF4C6AE40F2A510E4
:101A8000ADF808005846394602224FF0FF33FFF701
:101A900079FC00208DF808005846394601224FF0A5
:101AA000FF33FFF76FFC9DF8080000287FF4B6AE07
:101AB00008F106008047B1E6FF20B0427FF4A4AEF3
:101AC00040F2A510ADF808005846394602224FF002
:101AD000FF33FFF757FC01202BE000BFFF205045EC
:101AE00026D140F6A540ADF82400584649460222CA
:101AF0004FF0FF33FFF746FC584639460C2289E683
:101B0000FF20504514D140F2A510ADF824005846EE
:101B1000494602224FF0FF33FFF734FC384608A94C
:101B2000FEF772FD8DF81F0058460DF11F0170E69B
:101B30007F208DF82400584649466AE6FF2050452C
:101B40007FF462AE89E7000088B040F20008C4F27A
:101B50000208FEF713FFFFF765FD002743F630008C
:101B600007970297C4F20200016808F5805541F01A
:101B7000100101600168002201F010010291029938
:101B8000029701684FF0080941F004010160016803
:101B900001F00401029102990297016841F080016D
:101BA0000160016801F080010291029902970168C9
:101BB00041F001010160016801F001010291029907
:101BC0000297016841F002010160016801F0020121
:101BD000029102990297016841F0080101600068D2
:101BE000082100F008000290029828460195FEF7AF
:101BF000ABFE08F5006A5046012101220124FEF7E0
:101C0000A3FE08F540604FF2100100220090FEF79D
:101C10009BFE03AE28463146CDE90394CDE9057716
:101C2000FEF7B8FD50463146CDE90344CDE90577CE
:101C3000FEF7B0FDCDF80C904FF0020B4FF0050908
:101C400050463146CDE904B70697CDF81C90FEF713
:101C5000A1FD4FF48810CDE90407404631460394B6
:101C6000FEF798FD1020CDE9030B062007904046B3
:101C70003146CDE90577FEF78DFDE020CDE9030B78
:101C800040463146CDE90577CDF81C90FEF782FD40
:101C9000042008F58065CDE90307284631460597FD
:101CA000FEF778FD4FF48060CDE9030B28463146FE
:101CB000CDE90577CDF81C90FEF76CFD4FF21000D2
:101CC00003A991C1009C314620460697FEF762FDAC
:101CD0004FF4A450CDE9030B06200790504631463F
:101CE000CDE90577FEF756FD4FF40070CDE9030707
:101CF000404631460597FEF74DFD4FF4E050CDE9E3
:101D0000030B0A20079040463146CDE90577FEF7E0
:101D100041FD2020CDE90307204631460597FEF717
:101D200039FD4FF4107003901220CDE90407042010
:101D30000790284631460697FEF72CFD4FF4901089
:101D4000CDE9040701983146CDF80CB0FEF722FD2D
:101D500040F2700408F54050C2F2000420602046B2
:101D6000FEF722FC20B1EFF3108072B6FEE700BF51
:101D7000A8F5DE3044F8080F4FF4E1360C25204674
:101D8000C4E90167C4E90377C4E90557E761FFF7D0
:101D90006DF928B1EFF3108072B600BFFEE700BF07
:101DA00040F22010A8F5DC31C2F200000022C0E9A8
:101DB0000016C0E90222C0E90425C0E90622FFF7A7
:101DC00055F928B1EFF3108072B600BFFEE700BFEF
:101DD00040460121FEF7B2FD01280ED048F2000472
:101DE000C0F60004206880F3088860688047404699
:101DF0000121FEF7A3FD0128F4D1FFF7EFFCF1EE7E
:101E0000100A4FF6FF71C0F2C03120EA010040F025
:101E10004070E1EE100A7047000000000000000072
:101E20000102030406070809000000000102030480
:101E3000501E00080000002010000000C40100082F
:101E4000601E00081000002078070000E001000874
:101E500001000000100000000024F4000000000059
:040000050800018965
:00000001FF
