:020000040800F2
:1000000068070020290200088913000881130008EE
:1000100085130008210400084D15000800000000A9
:100020000000000000000000000000009113000824
:1000300025040008000000008D1300089513000837
:10004000430200084302000843020008430200087C
:10005000430200084302000843020008430200086C
:10006000430200084302000843020008430200085C
:10007000430200084302000843020008430200084C
:10008000430200084302000843020008430200083C
:10009000430200084302000843020008430200082C
:1000A000430200084302000843020008430200081C
:1000B000430200084302000843020008430200080C
:1000C00043020008430200084302000843020008FC
:1000D00043020008430200084302000843020008EC
:1000E00043020008430200084302000843020008DC
:1000F00043020008430200084302000843020008CC
:1001000043020008430200084302000843020008BB
:1001100043020008430200084302000843020008AB
:10012000430200084302000843020008430200089B
:10013000430200084302000843020008430200088B
:10014000430200084302000843020008430200087B
:10015000430200084302000843020008430200086B
:10016000430200084302000843020008430200085B
:100170004302000843020008430200080000000098
:10018000430200084302000800F002F800F03CF8C7
:100190000AA090E8000C82448344AAF10107DA45E2
:1001A00001D100F031F8AFF2090EBAE80F0013F0F8
:1001B000010F18BFFB1A43F0010318471C1700007A
:1001C0003C170000103A24BF78C878C1FAD852070B
:1001D00024BF30C830C144BF04680C6070470000C1
:1001E0000023002400250026103A28BF78C1FBD840
:1001F000520728BF30C148BF0B6070471FB501F0E0
:1002000051FB1FBD10B510BD00F0D0F81146FFF72F
:10021000F5FF01F09DF900F0EEF803B4FFF7F2FFEF
:1002200003BC00F0F5F80000094880470948004782
:10023000FEE7FEE7FEE7FEE7FEE7FEE7FEE7FEE796
:10024000FEE7FEE704480549054A064B70470000F3
:10025000491400088901000868010020680700208F
:10026000680300206803002053EA020C00F0698054
:100270002DE9F04B4FF00006002B1FBFB3FA83F5BA
:1002800003FA05F424FA05F65E4012BF1643B2FAEB
:1002900082F502FA05F4C5F120051EBF22FA05FC1D
:1002A00044EA0C04203556EA044C4FEA144418BFC3
:1002B000641C4FF000084FF00009904271EB030CF2
:1002C00039D3002919BFB1FA81F701FA07F6B0FA5C
:1002D00080F700FA07F6C7F120071EBF20FA07FCD7
:1002E00046EA0C062037B6FBF4FCA7EB0507103FE7
:1002F00007F01F0BCBF120062CFA06F60CFA0BFBCD
:1003000044BFB3460026202FA4BF5E464FF0000B2B
:100310005BEA060C08BF4FF0010B19EB0B0948EB29
:100320000608ABFB027C06FB02CC0BFB03CCC01B1C
:1003300071EB0C01C1E70B46024641464846BDE859
:10034000F08B13B5084318BF4FF0FF300146AFF3F1
:100350000080BDE81C4070474FF0000200B5134616
:1003600094469646203922BFA0E80C50A0E80C50D5
:10037000B1F12001BFF4F7AF090728BFA0E80C5086
:1003800048BF0CC05DF804EB890028BF40F8042B7F
:1003900008BF704748BF20F8022B11F0804F18BFEC
:1003A00000F8012B7047704770477047754600F0A2
:1003B0002BF8AE4605006946534620F007008546F7
:1003C00018B020B5FFF73EFFBDE820404FF0000613
:1003D0004FF000074FF000084FF0000BAC46ACE8C0
:1003E000C009ACE8C009ACE8C009ACE8C00921F01C
:1003F00007018D46704710B50446AFF300802046D4
:10040000BDE81040FFF709BF00487047100000200A
:1004100001491820ABBEFEE726000200704700002D
:10042000FEE7000070470000B0B5864602208EF857
:100430000500DEF8000042B1531E032B02F0030C4E
:1004400008D20022BCF1000F1AD1006801218EF8F9
:100450000510B0BD22F00302A1F1100354420022A6
:1004600053F8105F043A05605D68944205609D682A
:100470000560DD680560F3D15242BCF1000FE4D0A5
:1004800051F82230BCF1010F0360DED001EB820194
:100490004A68BCF1020F02601CBF896801600068F5
:1004A00001218EF80510B0BD002804BF012070475F
:1004B00010B50446407918B101206071002010BDCC
:1004C00000202071204600F005F801206071002016
:1004D00010BD000081B043F63001C4F20201006893
:1004E000A1F50362904201D001B070470020009056
:1004F000086840F480500860086800F4805000905C
:10050000009801B0704700002DE9F04F82B000F173
:100510003E4241F6004502F1FF77C4F2020508228F
:1005200043F6004E4FEAB726A84208BF0722C4F29E
:10053000010E072E38BF4FEAB722012500260027FB
:100540004FF00008009208E008F101080437B8F104
:10055000100F06F1020600F0A7800C6805FA08F9F2
:1005600014EA090FF0D0D1F804B003220BF0030C09
:10057000ACF10104B240012C6FEA020A10D8826883
:10058000CC6802EA0A02B440224382604268CBF39C
:10059000001422EA090204FA08F42243426005E04A
:1005A000BCF1030F02D14FF0030C20E0C2688C684D
:1005B00002EA0A02B4402243BCF1020FC26016D123
:1005C0006FF0030202EA58020244D2F820C007F09A
:1005D0001C050F230C69AB402CEA030304FA05F554
:1005E0002B431362D1F804B001250BF0030C026811
:1005F0000CFA06F302EA0A021A431BF4403F0260B7
:10060000A2D0002243F644030192C4F202031A6806
:100610004FF6084C42F480421A601A68CFF6FF7C0D
:1006200002F480420192019A28F00302724452F8C7
:100630000C3007F00C050F24AC40A343009C04FAD7
:1006400005F52B4342F80C30DEF808204B6842EAEF
:10065000090543F60C4CDC0258BF22EA0905CEF826
:100660000850C4F2010CDCF800209C0242EA0905A3
:1006700058BF22EA0905CCF80050DEF804209C039C
:1006800042EA090558BF22EA0905CEF80450DEF80F
:100690000020DB0342EA090558BF22EA0905CEF82B
:1006A0000050012550E700BF02B0BDE8F08F000008
:1006B0000069084018BF012070470000002A08BFE9
:1006C000090481617047000040F26410C2F200002A
:1006D0000068704740F2000040F26411C2F200006E
:1006E000C2F2000100780A681044086070470000F8
:1006F00080B543F60040C4F20200016841F4007185
:100700000160016841F480610160016841F4807119
:100710000160032000F076F8002000F005F800F0FA
:1007200027F8002080BD000070B540F20006C2F23C
:10073000000640F208013278C2F200014FF47A73E9
:100740000968B3FBF2F20446B1FBF2F1084600F08F
:1007500031FB0F2C4FF0010508D838B94FF0FF30AE
:1007600021460022002500F021F87460284670BD63
:1007700082B0002043F640010190C4F202014A68B1
:1007800042F480424A604A6802F480420192019A2F
:100790000090086840F080500860086800F08050C1
:1007A00000900098072002B000F02CB810B54EF66B
:1007B0000C5CCEF2000CDCF80030C3F3022E8EF09D
:1007C0000704042C28BF0424BEF103034FF0FF3EAE
:1007D0000EFA04F438BF0023A14399400EFA03F344
:1007E0009A43114300F00F0200F160430901043AFB
:1007F00003F564436244002848BF02F10C031970FA
:1008000010BD00004EF60C51CEF200010A684FF602
:10081000FF031A4060F30A2242F0806040F0FD704E
:10082000086070472DE9F041002800F08B8043F606
:100830000808C4F202080446D8F8F8030D4600F090
:100840000700884207D288F8F853D8F8F80300F078
:100850000700A84276D12068810717D5410705D542
:10086000D8F8001041F4E051C8F80010010705D590
:10087000D8F8001041F46041C8F80010D8F8001012
:10088000A26821F0F0011143C8F80010C0073FD161
:10089000D8F8F80300F00700A84207D988F8F85301
:1008A000D8F8F80300F00700A8424BD120684107B0
:1008B00007D5D8F80010E26821F4E0511143C8F8D8
:1008C0000010000708D5D8F80000216920F4604026
:1008D00040EAC100C8F8000000F07CF8D8F8001029
:1008E00041F6BE02C1F30311C0F60002515C40F2B2
:1008F000080220FA01F140F20400C2F20000006890
:10090000C2F200021160FFF70FFF0020BDE8F08186
:100910006068811E022907D258F8081C89015CBF53
:100920000120BDE8F08111E0012807D158F8081C2A
:1009300089035CBF0120BDE8F08107E058F8081C7E
:10094000890703D40120BDE8F08100BFD8F800106A
:1009500021F003010843C8F80000FFF7B5FE064682
:1009600041F28837D8F80000616800F00C00B0EB65
:10097000810F8DD0FFF7A8FE801BB842F2D903206B
:10098000BDE8F08140F2080043F60801C2F2000021
:10099000C4F202010068096841F6CE02C1F3822167
:1009A000C0F60002515CC8407047000040F20800E9
:1009B00043F60801C2F20000C4F2020100680968AF
:1009C00041F6CE02C1F34231C0F60002515CC8408C
:1009D0007047000010B543F60404C4F202046068D6
:1009E00000F00C0142F200400829C0F2F40007D0E8
:1009F000042918BF10BD41F20020C0F27A0010BDDA
:100A0000216801F03F02216823684902C3F388117D
:100A100006D4A1FB00010023FFF726FC07E000BF7E
:100A200041F20020C0F27A004843B0FBF2F02168A6
:100A30000222C1F3014102EB4101B0FBF1F010BD14
:100A40002DE9F04182B0002868D00446007843F6D2
:100A50000006C007C4F202060BD0B06800F00C001C
:100A6000042840F09F803068800302D56068002829
:100A700054D0207880071AD5B06810F00C0F09D038
:100A8000B06800F00C00082840F0A68070684002B2
:100A900000F1A2803068800702D5E06801283DD1CE
:100AA0003068216920F0F80040EAC1003060207809
:100AB000000737D4207840074CD4A56955B3B068F7
:100AC00000F00C00082840F0BB80012D26D0706893
:100AD000E16900F480028A4220D1216A00F03F02DD
:100AE0008A421BD147F6C071626A0140B1EB821F96
:100AF00014D1A16A4FF6FF73C903994300F4403241
:100B0000A1F580318A4209D1E16A00F07060B0EB52
:100B1000016F03D1002002B0BDE8F081012002B0D6
:100B2000BDE8F0816069002840F20000C4F247206F
:100B300076D00121C0F8801EFFF7C6FD054600BF34
:100B4000706F8007B6D4FFF7BFFD401B0228F7D9AE
:100B5000DDE000BF306C10F080580AD10020019019
:100B6000306C40F080503064306C00F08050019068
:100B7000019847F20007C4F200073868C00541D465
:100B8000386840F480703860FFF79EFD054600BF6E
:100B90003868C00536D4FFF797FD401B0228F7D907
:100BA000B5E000BFB06800F00C00082803D1706801
:100BB00040023FF558AF6068B0F5803F07D0B0F510
:100BC000A02F40F08D80306840F480203060306885
:100BD00040F4803030608DE0E068002852D0002082
:100BE000C4F2472001210160FFF76EFD054600BFFA
:100BF000306880073FF554AFFFF766FD401B0228C1
:100C0000F6D984E0A068012805D005284ED1306FC0
:100C100040F004003067306F40F0010030674FE073
:100C20000021C0F8801EFFF74FFD0546706F80075A
:100C30007FF540AFFFF748FD401B0228F6D966E07C
:100C40000027C4F2472700203866FFF73DFD022D3C
:100C500005460BD1306880015ED5FFF735FD401B9E
:100C600002284FF00300F5D955E700BF3068800136
:100C70007FF550AFFFF728FD401B02284FF003001F
:100C8000F4D948E70020C4F2472000210160FFF7B3
:100C90001BFD0546306880077FF509AFFFF714FD9F
:100CA000401B02284FF00300F4D934E7316F0028CD
:100CB00021F001013167316F21F0040131674DD01E
:100CC000FFF702FD054641F2883700BF306F80070D
:100CD00056D4FFF7F9FC401BB842F7D917E000BF24
:100CE0003168002821F480313160316821F480219D
:100CF00031604FD0FFF7E8FC054600BF3068800345
:100D00003FF5B7AEFFF7E0FC401B6428F6D903209F
:100D100002B0BDE8F08100BF04F11C052FCD0843EF
:100D200040EA8210D9034FF6FF729143A1F580315A
:100D300040EA05600843706001203866FFF7C4FC94
:100D4000044600BF306880013FF5E4AEFFF7BCFC0D
:100D5000001B02284FF00300F4D9DCE6FFF7B4FCD7
:100D6000054641F2883700BF306F800708D5FFF78E
:100D7000ABFC401BB8424FF00300F5D9CBE600BFF7
:100D8000B8F1000F7FF499AE306C20F080503064E1
:100D900093E600BFFFF798FC054600BF306880036C
:100DA0007FF567AEFFF790FC401B64284FF003000F
:100DB000F4D9B0E6411E0020B0EB116F1CBF01203A
:100DC00070474EF21002CEF2000251604EF62351EF
:100DD000CEF20001F0230B70072190601160704784
:100DE000002804BF0120704710B5044690F83D006C
:100DF00028B9002084F83C00204600F021F8242087
:100E000084F83D002068C16821F40051C16020468B
:100E100000F024FB2068016921F4904101614169DF
:100E200021F02A014161C16841F40051C1600020F4
:100E30002021206484F83D1084F83E1010BD00008D
:100E4000F0B587B0006844F60001C4F20001002448
:100E50008842CDE90544CDE9034402942AD044F206
:100E60000041C4F20001884265D1002043F6300100
:100E70000190C4F202010A6942F400320A610A696F
:100E800002F400320192019A01900A6842F00102D4
:100E90000A60096801F00101019101990C21029198
:100EA0000221CDE90310032005900020C4F20200C6
:100EB0003CE000BF43F630000194C4F20200016937
:100EC000002741F4802101610169C4F2020701F4A5
:100ED00080210191019901940168022541F00201EC
:100EE00001600168032601F002010191019901945A
:100EF000016841F008010160006802A900F00800E3
:100F0000019001984FF4006002900720069007F5C9
:100F10008060CDE903540596FFF7F6FA4FF4807030
:100F2000CDE9020507F54060CDE9044607210691A9
:100F300002A9FFF7E9FA07B0F0BD00002DE9F04380
:100F400081B0044690F83E0020280DD10E460029BD
:100F50004FF0010000F0CC801746002A00F0C88056
:100F600094F83C00012803D1022001B0BDE8F083D1
:100F7000012084F83C00002022211D46206484F8D2
:100F80003E102063FFF7A0FBA785E785A168074611
:100F9000B1F5805F01D1206910B1B046002601E0B3
:100FA0004FF00008002084F83C00E08D002800F09D
:100FB0009B8005F101090DE040684FF000086FF3D8
:100FC0005F2026F8020BE08D0138E085E08D0028D7
:100FD00000F08A802068016889060DD4B9F1000FFD
:100FE00018D04DB3FFF770FBC01BA84224D820686F
:100FF00001688906F6D500BFB8F1000FDCD0A16802
:10100000B1F5805F14D009B9216989B1406800F059
:101010007F000EE001688906EED4016889065CBF96
:1010200001685FEA8161E7D401688906F2D5E3E7E8
:10103000406808F8010BC6E7206850E8030F2168F4
:1010400020F4D07041E80302E2B1206850E8030FB9
:10105000216820F4D07041E803029AB1206850E87A
:10106000030F216820F4D07041E8030252B12068D8
:1010700050E8030F216820F4D07041E80302002AF1
:10108000DAD100BF206850E8050F216820F0010088
:1010900041E80502DAB1206850E8050F216820F028
:1010A000010041E8050292B1206850E8050F21686F
:1010B00020F0010041E805024AB1206850E8050F20
:1010C000216820F0010041E80502002ADAD1202041
:1010D00084F83D0084F83E00002084F83C000320A2
:1010E00001B0BDE8F08300BF202084F83E0000205E
:1010F00001B0BDE8F08300002DE9F04381B0044663
:1011000090F83D0020280DD10F4600294FF0010036
:1011100000F0DD801646002A00F0D98094F83C00EB
:10112000012803D1022001B0BDE8F083012084F83A
:101130003C000020206421201D4684F83D00FFF77C
:10114000C3FAA684E684A1680646B1F5805F03D1A0
:101150002069002800F01081B8460027002084F89C
:101160003C00E18C2068002900F0908005F1010925
:101170000DE000BFB8F1000F28D018F8011B416046
:10118000E18C0139E184E18C002900F07F80016865
:101190000906EFD4B9F1000F0AD0FDB1FFF794FAB8
:1011A000801BA8421AD8206801680906F6D5E1E735
:1011B00001680906DED4016809065CBF01685FEAC0
:1011C0000161D7D401680906F2D5D3E737F8021BCD
:1011D0004FF000086FF35F21D1E700BF206850E8AF
:1011E000030F216820F4D07041E80302BAB32068ED
:1011F00050E8030F216820F4D07041E8030272B375
:10120000206850E8030F216820F4D07041E8030201
:101210002AB3206850E8030F216820F4D07041E819
:101220000302002ADAD11AE0206850E8050F21688D
:1012300020F0010041E80502DAB1206850E8050F0E
:10124000216820F0010041E8050292B1206850E8D1
:10125000050F216820F0010041E805024AB120682D
:1012600050E8050F216820F0010041E80502002A3E
:10127000DAD1202084F83D0084F83E00002084F874
:101280003C00032001B0BDE8F08300BF01684906BF
:1012900019D4FDB1691C0DD10168490613D4016848
:1012A00049065CBF01685FEA41610CD401684906E8
:1012B000F2D508E0FFF708FA801BA8420AD8206898
:1012C00000684006F6D5202084F83D00002001B0DB
:1012D000BDE8F083206850E8030F216820F4D07047
:1012E00041E80302E2B3206850E8030F216820F4CC
:1012F000D07041E803029AB3206850E8030F2168D8
:1013000020F4D07041E8030252B3206850E8030F84
:10131000216820F4D07041E80302002ADAD11FE0EE
:10132000206850E8050F216820F0010041E805021F
:10133000002A9ED0206850E8050F216820F00100A7
:1013400041E80502002A3FF494AF206850E8050FF9
:10135000216820F0010041E80502002A3FF489AF2E
:10136000206850E8050F216820F0010041E80502DF
:10137000002AD5D17DE700BF4FF00008EEE600005F
:10138000FEE70000FEE70000FEE7000070470000F7
:1013900070470000FFF79EB9B0B592B0002443F645
:1013A00040000B94CDE90944CDE907440594CDE90B
:1013B0000344CDE901440094C4F20200016802250F
:1013C00041F080510160006800F08050009000986A
:1013D00047F200000094C4F20000016841F480412B
:1013E0000160006800F4804000900098012009909E
:1013F00010200A9008200E9032200F9004201090A8
:101400000720119006A80695CDE90C54FFF718FBAC
:1014100020B1EFF3108072B6FEE700BF0F20CDE9D8
:1014200001054FF4A05004904FF48050059001A89E
:1014300000210394FFF7F6F920B1EFF3108072B6A4
:10144000FEE700BF12B0B0BD4EF68850CEF20000ED
:10145000016841F4700101607047000010B5044656
:101460000068D4E902C22369016921F440511143A3
:101470000161626943EA0C01E3691143C2681943DF
:1014800049F20C639A431143C1604169A26921F496
:10149000407141F20043114340F48062C4F2010301
:1014A0009A42416102D1FFF781FA01E0FFF76AFA3F
:1014B000E16963681922B1F5004FA0FB020123D155
:1014C0005A00DB0FFEF7D0FE48F21F51C5F2EB11B8
:1014D000A0FB01235A094FF69C73C0F6FF7303F17A
:1014E000805302FB0300322303EBC000A0FB010189
:1014F0004FF4F87000EA111000EB0210C1F3421132
:1015000008442168886010BD9A009B0FFEF7ACFE6E
:1015100048F21F51C5F2EB11A0FB01235A094FF607
:101520009C73C0F6FF7302FB0300322303EB001031
:10153000A0FB0101F02000EA511000EB0210C1F302
:10154000431108442168886010BD0000FEE70000D8
:1015500088B040F20008C4F20208FFF7C9F8FFF7AC
:101560001BFF002743F6300007970297C4F20200E2
:10157000016808F5805541F0100101600168002202
:1015800001F0100102910299029701684FF00809D9
:1015900041F004010160016801F004010291029927
:1015A0000297016841F080010160016801F080014B
:1015B000029102990297016841F0010101600168FE
:1015C00001F00101029102990297016841F00201C4
:1015D0000160016801F0020102910299029701681D
:1015E00041F0080101600068082100F00800029045
:1015F000029828460195FFF761F808F5006A504601
:10160000012101220124FFF759F808F540604FF24B
:10161000100100220090FFF751F803AE2846314632
:10162000CDE90394CDE90577FEF76EFF50463146CC
:10163000CDE90344CDE90577FEF766FFCDF80C90C0
:101640004FF0020B4FF0050950463146CDE904B783
:101650000697CDF81C90FEF757FF4FF48810CDE9A0
:101660000407404631460394FEF74EFF1020CDE9B3
:10167000030B0620079040463146CDE90577FEF77B
:1016800043FFE020CDE9030B40463146CDE9057725
:10169000CDF81C90FEF738FF042008F58065CDE9F1
:1016A0000307284631460597FEF72EFF4FF480606A
:1016B000CDE9030B28463146CDE90577CDF81C90DE
:1016C000FEF722FF4FF2100003A991C1009C3146A2
:1016D00020460697FEF718FF4FF4A450CDE9030B00
:1016E0000620079050463146CDE90577FEF70CFFFE
:1016F0004FF40070CDE90307404631460597FEF7E9
:1017000003FF4FF4E050CDE9030B0A200790404659
:101710003146CDE90577FEF7F7FE2020CDE9030736
:10172000204631460597FEF7EFFE4FF41070039008
:101730001220CDE904070420079028463146069779
:10174000FEF7E2FE4FF49010CDE904070198314610
:10175000CDF80CB0FEF7D8FE40F2700508F5405009
:10176000C2F2000528602846FEF79EFE20B1EFF386
:10177000108072B6FEE700BFA8F5DE31284640F8BB
:10178000081F4FF4E1360C24C0E90167C0E9037774
:10179000C0E90547C761FFF723FB28B1EFF31080CD
:1017A00072B600BFFEE700BF40F22010A8F5DC31A2
:1017B000C2F200000022C0E90016C0E90222C0E91E
:1017C0000424C0E90622FFF70BFB28B1EFF31080D9
:1017D00072B600BFFEE700BF40460121FEF768FF7A
:1017E00001280ED048F20004C0F60004206880F3FF
:1017F00008886068804740460121FEF759FF0128AC
:10180000F4D140F2BC04C2F2000405F1080604F170
:10181000010803AFA4F1010B0AE000BF7F208DF89F
:101820000C003046394601224FF0FF33FFF764FCCD
:1018300020466421FEF790FD3046214601224FF0FC
:10184000FF33FFF77BFB2278304641464FF0FF33F2
:10185000FFF774FB60785128EAD1207801305FFAF5
:1018600080F98145DAD1DA461AF8010F394603903A
:1018700028460122FEF7D8FDB9F10109F4D100286C
:10188000CCD140F2A510ADF80C003046394602220A
:101890004FF0FF33FFF730FC01208DF80800304691
:1018A00002A9C0E7F1EE100A4FF6FF71C0F2C03195
:1018B00020EA010040F04070E1EE100A704700009D
:1018C00000000000000001020304060708090000F0
:1018D0000000010203040000F818000800000020C6
:1018E00010000000C40100080819000810000020C2
:1018F00058070000E001000801000000100000008F
:081900000024F40000000000C7
:040000050800018965
:00000001FF
