:020000040800F2
:10800000B806002029820008ED8D0008E58D0008E3
:10801000E98D0008D5830008BD8F0008000000002E
:10802000000000000000000000000000F58D0008C6
:10803000D983000800000000F18D0008F98D0008C8
:1080400043820008438200084382000843820008FC
:108050004382000843820008DD8300084382000851
:1080600043820008438200084382000843820008DC
:1080700043820008438200084382000843820008CC
:1080800043820008438200084382000843820008BC
:1080900043820008438200084382000843820008AC
:1080A000438200084382000843820008438200089C
:1080B000438200084382000843820008438200088C
:1080C000438200084382000843820008438200087C
:1080D000438200084382000843820008438200086C
:1080E000438200084382000843820008438200085C
:1080F000438200084382000843820008438200084C
:10810000438200084382000843820008438200083B
:10811000438200084382000843820008438200082B
:10812000438200084382000843820008438200081B
:10813000438200084382000843820008438200080B
:1081400043820008438200084382000843820008FB
:1081500043820008438200084382000843820008EB
:1081600043820008438200084382000843820008DB
:108170004382000843820008438200080000000098
:10818000438200084382000800F002F800F03CF847
:108190000AA090E8000C82448344AAF10107DA4562
:1081A00001D100F031F8AFF2090EBAE80F0013F078
:1081B000010F18BFFB1A43F0010318478410000099
:1081C000A4100000103A24BF78C878C1FAD852072A
:1081D00024BF30C830C144BF04680C607047000041
:1081E0000023002400250026103A28BF78C1FBD8C0
:1081F000520728BF30C148BF0B6070471FB501F060
:1082000006F81FBD10B510BD00F0A9F81146FFF724
:10821000F5FF00F0D5FE00F0C7F803B4FFF7F2FF5A
:1082200003BC00F0CFF80000094880470948004728
:10823000FEE7FEE7FEE7FEE7FEE7FEE7FEE7FEE716
:10824000FEE7FEE704480549054A064B7047000073
:10825000AD8E000889810008B8000020B806002013
:10826000B8020020B802002053EA020C00F0698036
:108270002DE9F04B4FF00006002B1FBFB3FA83F53A
:1082800003FA05F424FA05F65E4012BF1643B2FA6B
:1082900082F502FA05F4C5F120051EBF22FA05FC9D
:1082A00044EA0C04203556EA044C4FEA144418BF43
:1082B000641C4FF000084FF00009904271EB030C72
:1082C00039D3002919BFB1FA81F701FA07F6B0FADC
:1082D00080F700FA07F6C7F120071EBF20FA07FC57
:1082E00046EA0C062037B6FBF4FCA7EB0507103F67
:1082F00007F01F0BCBF120062CFA06F60CFA0BFB4D
:1083000044BFB3460026202FA4BF5E464FF0000BAB
:108310005BEA060C08BF4FF0010B19EB0B0948EBA9
:108320000608ABFB027C06FB02CC0BFB03CCC01B9C
:1083300071EB0C01C1E70B46024641464846BDE8D9
:10834000F08B13B5084318BF4FF0FF300146AFF371
:108350000080BDE81C407047704770477047754605
:1083600000F02CF8AE4605006946534620F00700A1
:10837000854618B020B5FFF765FFBDE820404FF0F7
:1083800000064FF000074FF000084FF0000BAC461E
:10839000ACE8C009ACE8C009ACE8C009ACE8C00969
:1083A00021F007018D46704710B50446AFF30080F9
:1083B0002046BDE81040FFF730BF0000004870477E
:1083C0001000002001491820ABBEFEE72600020085
:1083D00070470000FEE700007047000080B50120F4
:1083E00000F00CF840F60040C4F202004FF40051D7
:1083F000BDE8804000F0E2B87047000043F6144149
:10840000C4F201010A68024214BF08607047FFF716
:10841000F3BF00002DE9F04F82B000F13E4241F67B
:10842000004502F1FF77C4F20205082243F6004E30
:108430004FEAB726A84208BF0722C4F2010E072E52
:1084400038BF4FEAB7220125002600274FF0000869
:10845000009208E008F101080437B8F1100F06F1A6
:10846000020600F0A7800C6805FA08F914EA090F63
:10847000F0D0D1F804B003220BF0030CACF10104EE
:10848000B240012C6FEA020A10D88268CC6802EA76
:108490000A02B440224382604268CBF3001422EA0D
:1084A000090204FA08F42243426005E0BCF1030F1C
:1084B00002D14FF0030C20E0C2688C6802EA0A0285
:1084C000B4402243BCF1020FC26016D16FF0030228
:1084D00002EA58020244D2F820C007F01C050F231C
:1084E0000C69AB402CEA030304FA05F52B43136235
:1084F000D1F804B001250BF0030C02680CFA06F366
:1085000002EA0A021A431BF4403F0260A2D0002292
:1085100043F644030192C4F202031A684FF6084C72
:1085200042F480421A601A68CFF6FF7C02F480425F
:108530000192019A28F00302724452F80C3007F0BD
:108540000C050F24AC40A343009C04FA05F52B4313
:1085500042F80C30DEF808204B6842EA090543F681
:108560000C4CDC0258BF22EA0905CEF80850C4F2D0
:10857000010CDCF800209C0242EA090558BF22EAFF
:108580000905CCF80050DEF804209C0342EA0905F6
:1085900058BF22EA0905CEF80450DEF80020DB03BC
:1085A00042EA090558BF22EA0905CEF80050012524
:1085B00050E700BF02B0BDE8F08F0000426902EA58
:1085C0000103914341EA034181617047002A08BFDA
:1085D000090481617047000040F2B400C2F200005B
:1085E0000068704740F2000040F2B401C2F200009F
:1085F000C2F2000100780A68104408607047000069
:1086000080B543F60040C4F20200016841F40071F5
:108610000160016841F480610160016841F480718A
:108620000160032000F08AF8002000F005F800F057
:1086300027F8002080BD000070B540F20006C2F2AD
:10864000000640F208013278C2F200014FF47A735A
:108650000968B3FBF2F20446B1FBF2F1084600F000
:1086600045FB0F2C4FF0010508D838B94FF0FF300B
:1086700021460022002500F035F87460284670BDC0
:1086800082B0002043F640010190C4F202014A6822
:1086900042F480424A604A6802F480420192019AA0
:1086A0000090086840F080500860086800F0805032
:1086B00000900098072002B000F040B8002848BFA2
:1086C0007047C1B200F01F00012202FA00F04EF222
:1086D0000012CEF2000242EAD10121F0030108604B
:1086E0007047000010B54EF60C5CCEF2000CDCF8C2
:1086F0000030C3F3022E8EF00704042C28BF04249C
:10870000BEF103034FF0FF3E0EFA04F438BF00231E
:10871000A14399400EFA03F39A43114300F00F026C
:1087200000F160430901043A03F564436244002800
:1087300048BF02F10C03197010BD00004EF60C5139
:10874000CEF200010A684FF6FF031A4060F30A22D6
:1087500042F0806040F0FD70086070472DE9F04104
:10876000002800F08B8043F60808C4F20208044693
:10877000D8F8F8030D4600F00700884207D288F8C1
:10878000F853D8F8F80300F00700A84276D1206823
:10879000810717D5410705D5D8F8001041F4E051FD
:1087A000C8F80010010705D5D8F8001041F4604161
:1087B000C8F80010D8F80010A26821F0F0011143A9
:1087C000C8F80010C0073FD1D8F8F80300F0070040
:1087D000A84207D988F8F853D8F8F80300F0070042
:1087E000A8424BD12068410707D5D8F80010E268AD
:1087F00021F4E0511143C8F80010000708D5D8F85B
:108800000000216920F4604040EAC100C8F800007F
:1088100000F07CF8D8F8001049F22822C1F30311C7
:10882000C0F60002515C40F2080220FA01F140F269
:108830000400C2F200000068C2F200021160FFF7FB
:10884000FBFE0020BDE8F0816068811E022907D28E
:1088500058F8081C89015CBF0120BDE8F08111E0D7
:10886000012807D158F8081C89035CBF0120BDE826
:10887000F08107E058F8081C890703D40120BDE8FF
:10888000F08100BFD8F8001021F003010843C8F8B8
:108890000000FFF7A1FE064641F28837D8F8000035
:1088A000616800F00C00B0EB810F8DD0FFF794FEF3
:1088B000801BB842F2D90320BDE8F08140F20800E5
:1088C00043F60801C2F20000C4F202010068096820
:1088D00049F23822C1F38221C0F60002515CC8403F
:1088E0007047000040F2080043F60801C2F20000A1
:1088F000C4F202010068096849F23822C1F342312A
:10890000C0F60002515CC8407047000010B543F645
:108910000404C4F20204606800F00C0142F200405A
:108920000829C0F2F40007D0042918BF10BD41F295
:108930000020C0F27A0010BD216801F03F022168DA
:1089400023684902C3F3881106D4A1FB0001002368
:10895000FFF78AFC07E000BF41F20020C0F27A0076
:108960004843B0FBF2F021680222C1F3014102EB5F
:108970004101B0FBF1F010BD2DE9F04182B00028BB
:1089800068D00446007843F60006C007C4F2020629
:108990000BD0B06800F00C00042840F09F803068D5
:1089A000800302D56068002854D0207880071AD54B
:1089B000B06810F00C0F09D0B06800F00C00082867
:1089C00040F0A6807068400200F1A2803068800705
:1089D00002D5E06801283DD13068216920F0F80017
:1089E00040EAC10030602078000737D42078400783
:1089F0004CD4A56955B3B06800F00C00082840F0CD
:108A0000BB80012D26D07068E16900F480028A42A3
:108A100020D1216A00F03F028A421BD147F6C07183
:108A2000626A0140B1EB821F14D1A16A4FF6FF7355
:108A3000C903994300F44032A1F580318A4209D13B
:108A4000E16A00F07060B0EB016F03D1002002B06A
:108A5000BDE8F081012002B0BDE8F0816069002826
:108A600040F20000C4F2472076D00121C0F8801EF9
:108A7000FFF7B2FD054600BF706F8007B6D4FFF761
:108A8000ABFD401B0228F7D9DDE000BF306C10F0D1
:108A900080580AD100200190306C40F08050306442
:108AA000306C00F080500190019847F20007C4F24A
:108AB00000073868C00541D4386840F480703860D9
:108AC000FFF78AFD054600BF3868C00536D4FFF7BA
:108AD00083FD401B0228F7D9B5E000BFB06800F065
:108AE0000C00082803D1706840023FF558AF606859
:108AF000B0F5803F07D0B0F5A02F40F08D803068F2
:108B000040F480203060306840F4803030608DE088
:108B1000E068002852D00020C4F247200121016003
:108B2000FFF75AFD054600BF306880073FF554AF98
:108B3000FFF752FD401B0228F6D984E0A068012807
:108B400005D005284ED1306F40F004003067306FFB
:108B500040F0010030674FE00021C0F8801EFFF7B1
:108B60003BFD0546706F80077FF540AFFFF734FD92
:108B7000401B0228F6D966E00027C4F247270020F0
:108B80003866FFF729FD022D05460BD130688001BC
:108B90005ED5FFF721FD401B02284FF00300F5D9F9
:108BA00055E700BF306880017FF550AFFFF714FD37
:108BB000401B02284FF00300F4D948E70020C4F21C
:108BC000472000210160FFF707FD05463068800758
:108BD0007FF509AFFFF700FD401B02284FF00300AF
:108BE000F4D934E7316F002821F001013167316F8A
:108BF00021F0040131674DD0FFF7EEFC054641F24C
:108C0000883700BF306F800756D4FFF7E5FC401B64
:108C1000B842F7D917E000BF3168002821F480314D
:108C20003160316821F4802131604FD0FFF7D4FCEE
:108C3000054600BF306880033FF5B7AEFFF7CCFCB8
:108C4000401B6428F6D9032002B0BDE8F08100BFC4
:108C500004F11C052FCD084340EA8210D9034FF6DA
:108C6000FF729143A1F5803140EA056008437060CE
:108C700001203866FFF7B0FC044600BF3068800171
:108C80003FF5E4AEFFF7A8FC001B02284FF00300FD
:108C9000F4D9DCE6FFF7A0FC054641F2883700BFB7
:108CA000306F800708D5FFF797FC401BB8424FF0A4
:108CB0000300F5D9CBE600BFB8F1000F7FF499AE01
:108CC000306C20F08050306493E600BFFFF784FCE6
:108CD000054600BF306880037FF567AEFFF77CFC78
:108CE000401B64284FF00300F4D9B0E6411E002079
:108CF000B0EB116F1CBF012070474EF21002CEF294
:108D0000000251604EF62351CEF20001F0230B70A9
:108D10000721906011607047002804BF0120704750
:108D200010B5044690F83D0028B9002084F83C00B6
:108D3000204600F021F8242084F83D002068C16816
:108D400021F40051C160204600F0C0F8206801699C
:108D500021F490410161416921F02A014161C1681A
:108D600041F40051C16000202021206484F83D10AE
:108D700084F83E1010BD000080B586B0016844F252
:108D80000040C4F20000814202D006B080BD00BFA6
:108D9000002143F630020191C4F20202136900F58A
:108DA000DE3043F400331361136903F4003301939D
:108DB000019B0191136843F001031360126802F0F4
:108DC00001020192019A0C2201920222CDE90221B4
:108DD000032104910721059101A9FFF71BFB06B0B0
:108DE00080BD0000FEE70000FEE70000FEE7000097
:108DF0007047000070470000FFF7F4BBB0B592B0B9
:108E0000002443F640000B94CDE90944CDE9074422
:108E10000594CDE90344CDE901440094C4F2020075
:108E20000168022541F080510160006800F0805027
:108E30000090009847F200000094C4F2000001681E
:108E400041F480410160006800F480400090009887
:108E50000120099010200A9008200E9032200F90D7
:108E6000042010900720119006A80695CDE90C5417
:108E7000FFF782FD20B1EFF3108072B6FEE700BF6E
:108E80000F20CDE901054FF4A05004904FF480501D
:108E9000059001A800210394FFF760FC20B1EFF3D7
:108EA000108072B6FEE700BF12B0B0BD4EF688501B
:108EB000CEF20000016841F47001016048F2000147
:108EC000C0F6000140F8801C7047000010B5044651
:108ED0000068D4E902C22369016921F440511143B9
:108EE0000161626943EA0C01E3691143C2681943F5
:108EF00049F20C639A431143C1604169A26921F4AC
:108F0000407141F20043114340F48062C4F2010316
:108F10009A42416102D1FFF7E5FC01E0FFF7CEFC88
:108F2000E16963681922B1F5004FA0FB020123D16A
:108F30005A00DB0FFFF798F948F21F51C5F2EB1109
:108F4000A0FB01235A094FF69C73C0F6FF7303F18F
:108F5000805302FB0300322303EBC000A0FB01019E
:108F60004FF4F87000EA111000EB0210C1F3421147
:108F700008442168886010BD9A009B0FFFF774F9C0
:108F800048F21F51C5F2EB11A0FB01235A094FF61D
:108F90009C73C0F6FF7302FB0300322303EB001047
:108FA000A0FB0101F02000EA511000EB0210C1F318
:108FB000431108442168886010BD0000FEE70000EE
:108FC00088B0FFF71DFBFFF719FF002443F63000C0
:108FD00007940294C4F20200016840F2000A41F0D2
:108FE000100101600168C4F2020A01F0100102914F
:108FF0000299029401680AF5805741F0040101606A
:109000000168002201F004010291029902940168B2
:109010004FF0080941F080010160016801F0800112
:10902000029102990294016841F001010160016816
:1090300001F00101029102990294016841F00201DC
:109040000160016801F00201029102990294016835
:1090500041F0080101600068082100F0080002905A
:10906000029838460197FFF7B1FA0AF500684046C2
:10907000012101220125FFF7A9FA0AF540604FF20C
:10908000100100220090FFF7A1FA03AE38463146E6
:10909000CDE90395CDE90544FFF7BCF940463146DB
:1090A000CDE90355CDE90544FFF7B4F9CDF80C90AF
:1090B0004FF0020B4FF0050940463146CDE904B4AC
:1090C0000694CDF81C90FFF7A5F94FF48810CDE970
:1090D0000404504631460395FFF79CF91020CDE972
:1090E000030B0620079050463146CDE90544FFF7B3
:1090F00091F9E020CDE9030B50463146CDE9054416
:10910000CDF81C90FFF786F904200AF58067CDE9B9
:109110000304384631460594FFF77CF94FF480602C
:10912000CDE9030B38463146CDE90544CDF81C9016
:10913000FFF770F94FF21000CDE90305009D3146AD
:109140002846CDE90544FFF765F94FF4A450CDE971
:10915000030B0620079040463146CDE90544FFF752
:1091600059F94FF40070CDE9030450463146059497
:10917000FFF750F94FF4E050CDE9030B0A200790B8
:1091800050463146CDE90544FFF744F92020CDE9AA
:109190000304284631460594FFF73CF94FF410705C
:1091A00003901220CDE9040404200790384631468C
:1091B0000694FFF72FF94FF49010CDE904040198BD
:1091C0003146CDF80CB0FFF725F90620002100222A
:1091D000FFF788FA0620FFF771FA40F27000AAF54F
:1091E000DE31C2F200000C234FF4E13280E81600B9
:1091F000C0E90344C0E90534C461FFF78DFD28B11F
:10920000EFF3108072B600BFFEE700BFFEE7F1EE9D
:10921000100A4FF6FF71C0F2C03120EA010040F0A1
:109220004070E1EE100A70470000000000000000EE
:1092300001020304060708090000000001020304FC
:10924000609200080000002010000000C4810008A7
:109250007092000810000020A8060000E0810008BD
:1092600001000000100000000024F40000000000D5
:0400000508008189E5
:00000001FF
